{
  "contractName": "Voting",
  "abi": [
    {
      "anonymous": false,
      "inputs": [
        {
          "indexed": false,
          "internalType": "address",
          "name": "voterAddress",
          "type": "address"
        }
      ],
      "name": "LogDepositReceived",
      "type": "event"
    },
    {
      "anonymous": false,
      "inputs": [
        {
          "indexed": true,
          "internalType": "address",
          "name": "previousOwner",
          "type": "address"
        },
        {
          "indexed": true,
          "internalType": "address",
          "name": "newOwner",
          "type": "address"
        }
      ],
      "name": "OwnershipTransferred",
      "type": "event"
    },
    {
      "anonymous": false,
      "inputs": [
        {
          "indexed": false,
          "internalType": "uint256",
          "name": "proposalId",
          "type": "uint256"
        }
      ],
      "name": "ProposalRegistered",
      "type": "event"
    },
    {
      "anonymous": false,
      "inputs": [
        {
          "indexed": false,
          "internalType": "address",
          "name": "voter",
          "type": "address"
        },
        {
          "indexed": false,
          "internalType": "uint256",
          "name": "proposalId",
          "type": "uint256"
        }
      ],
      "name": "Voted",
      "type": "event"
    },
    {
      "anonymous": false,
      "inputs": [
        {
          "indexed": false,
          "internalType": "address",
          "name": "voterAddress",
          "type": "address"
        }
      ],
      "name": "VoterRegistered",
      "type": "event"
    },
    {
      "anonymous": false,
      "inputs": [
        {
          "indexed": false,
          "internalType": "enum Voting.WorkflowStatus",
          "name": "previousStatus",
          "type": "uint8"
        },
        {
          "indexed": false,
          "internalType": "enum Voting.WorkflowStatus",
          "name": "newStatus",
          "type": "uint8"
        }
      ],
      "name": "WorkflowStatusChange",
      "type": "event"
    },
    {
      "stateMutability": "payable",
      "type": "fallback",
      "payable": true
    },
    {
      "inputs": [],
      "name": "owner",
      "outputs": [
        {
          "internalType": "address",
          "name": "",
          "type": "address"
        }
      ],
      "stateMutability": "view",
      "type": "function",
      "constant": true
    },
    {
      "inputs": [],
      "name": "renounceOwnership",
      "outputs": [],
      "stateMutability": "nonpayable",
      "type": "function"
    },
    {
      "inputs": [
        {
          "internalType": "address",
          "name": "newOwner",
          "type": "address"
        }
      ],
      "name": "transferOwnership",
      "outputs": [],
      "stateMutability": "nonpayable",
      "type": "function"
    },
    {
      "inputs": [],
      "name": "winningProposalID",
      "outputs": [
        {
          "internalType": "uint256",
          "name": "",
          "type": "uint256"
        }
      ],
      "stateMutability": "view",
      "type": "function",
      "constant": true
    },
    {
      "inputs": [],
      "name": "workflowStatus",
      "outputs": [
        {
          "internalType": "enum Voting.WorkflowStatus",
          "name": "",
          "type": "uint8"
        }
      ],
      "stateMutability": "view",
      "type": "function",
      "constant": true
    },
    {
      "stateMutability": "payable",
      "type": "receive",
      "payable": true
    },
    {
      "inputs": [
        {
          "internalType": "address",
          "name": "_addr",
          "type": "address"
        }
      ],
      "name": "getVoter",
      "outputs": [
        {
          "components": [
            {
              "internalType": "bool",
              "name": "isRegistered",
              "type": "bool"
            },
            {
              "internalType": "bool",
              "name": "hasVoted",
              "type": "bool"
            },
            {
              "internalType": "uint256",
              "name": "votedProposalId",
              "type": "uint256"
            }
          ],
          "internalType": "struct Voting.Voter",
          "name": "",
          "type": "tuple"
        }
      ],
      "stateMutability": "view",
      "type": "function",
      "constant": true
    },
    {
      "inputs": [
        {
          "internalType": "uint256",
          "name": "_id",
          "type": "uint256"
        }
      ],
      "name": "getOneProposal",
      "outputs": [
        {
          "components": [
            {
              "internalType": "string",
              "name": "description",
              "type": "string"
            },
            {
              "internalType": "uint256",
              "name": "voteCount",
              "type": "uint256"
            }
          ],
          "internalType": "struct Voting.Proposal",
          "name": "",
          "type": "tuple"
        }
      ],
      "stateMutability": "view",
      "type": "function",
      "constant": true
    },
    {
      "inputs": [
        {
          "internalType": "address",
          "name": "_addr",
          "type": "address"
        }
      ],
      "name": "addVoter",
      "outputs": [],
      "stateMutability": "nonpayable",
      "type": "function"
    },
    {
      "inputs": [
        {
          "internalType": "string",
          "name": "_desc",
          "type": "string"
        }
      ],
      "name": "addProposal",
      "outputs": [],
      "stateMutability": "nonpayable",
      "type": "function"
    },
    {
      "inputs": [
        {
          "internalType": "uint256",
          "name": "_id",
          "type": "uint256"
        }
      ],
      "name": "setVote",
      "outputs": [],
      "stateMutability": "nonpayable",
      "type": "function"
    },
    {
      "inputs": [],
      "name": "startProposalsRegistering",
      "outputs": [],
      "stateMutability": "nonpayable",
      "type": "function"
    },
    {
      "inputs": [],
      "name": "endProposalsRegistering",
      "outputs": [],
      "stateMutability": "nonpayable",
      "type": "function"
    },
    {
      "inputs": [],
      "name": "startVotingSession",
      "outputs": [],
      "stateMutability": "nonpayable",
      "type": "function"
    },
    {
      "inputs": [],
      "name": "endVotingSession",
      "outputs": [],
      "stateMutability": "nonpayable",
      "type": "function"
    },
    {
      "inputs": [],
      "name": "tallyVotes",
      "outputs": [],
      "stateMutability": "nonpayable",
      "type": "function"
    }
  ],
  "bytecode": "0x60806040523480156200001157600080fd5b5062000032620000266200003860201b60201c565b6200004060201b60201c565b62000104565b600033905090565b60008060009054906101000a900473ffffffffffffffffffffffffffffffffffffffff169050816000806101000a81548173ffffffffffffffffffffffffffffffffffffffff021916908373ffffffffffffffffffffffffffffffffffffffff1602179055508173ffffffffffffffffffffffffffffffffffffffff168173ffffffffffffffffffffffffffffffffffffffff167f8be0079c531659141344cd1fd0a4f28419497f9722a3daafe3b4186f6b6457e060405160405180910390a35050565b61256680620001146000396000f3fe6080604052600436106100ec5760003560e01c8063a7bfab161161008a578063d4f50f9811610059578063d4f50f98146102f6578063ee74c67814610333578063f2fde38b1461034a578063f4ab9adf146103735761012a565b8063a7bfab1614610286578063bdc014311461029d578063c7038a4e146102c8578063c88af42f146102df5761012a565b8063715018a6116100c6578063715018a6146101dc5780638da5cb5b146101f3578063a1edffa21461021e578063a2788cce146102495761012a565b8063230796ae146101735780632fdae3c51461019c578063378a2178146101c55761012a565b3661012a577f15382559391789f1865e10e9c8b51327a9cb0381eae89973ada229e7a78c08f3336040516101209190611563565b60405180910390a1005b6000803690501461013a57600080fd5b7f15382559391789f1865e10e9c8b51327a9cb0381eae89973ada229e7a78c08f3336040516101699190611563565b60405180910390a1005b34801561017f57600080fd5b5061019a600480360381019061019591906115be565b61039c565b005b3480156101a857600080fd5b506101c360048036038101906101be9190611650565b6106f3565b005b3480156101d157600080fd5b506101da610976565b005b3480156101e857600080fd5b506101f1610a5c565b005b3480156101ff57600080fd5b50610208610a70565b6040516102159190611563565b60405180910390f35b34801561022a57600080fd5b50610233610a99565b6040516102409190611714565b60405180910390f35b34801561025557600080fd5b50610270600480360381019061026b91906115be565b610aac565b60405161027d919061180b565b60405180910390f35b34801561029257600080fd5b5061029b610c13565b005b3480156102a957600080fd5b506102b2610cf9565b6040516102bf919061183c565b60405180910390f35b3480156102d457600080fd5b506102dd610cff565b005b3480156102eb57600080fd5b506102f4610e7a565b005b34801561030257600080fd5b5061031d60048036038101906103189190611883565b610f5f565b60405161032a919061190d565b60405180910390f35b34801561033f57600080fd5b50610348611087565b005b34801561035657600080fd5b50610371600480360381019061036c9190611883565b61116d565b005b34801561037f57600080fd5b5061039a60048036038101906103959190611883565b6111f0565b005b600460003373ffffffffffffffffffffffffffffffffffffffff1673ffffffffffffffffffffffffffffffffffffffff16815260200190815260200160002060000160009054906101000a900460ff1661042b576040517f08c379a000000000000000000000000000000000000000000000000000000000815260040161042290611985565b60405180910390fd5b6003600581111561043f5761043e61169d565b5b600260009054906101000a900460ff1660058111156104615761046061169d565b5b146104a1576040517f08c379a000000000000000000000000000000000000000000000000000000000815260040161049890611a17565b60405180910390fd5b60011515600460003373ffffffffffffffffffffffffffffffffffffffff1673ffffffffffffffffffffffffffffffffffffffff16815260200190815260200160002060000160019054906101000a900460ff16151503610537576040517f08c379a000000000000000000000000000000000000000000000000000000000815260040161052e90611a83565b60405180910390fd5b600380549050811061057e576040517f08c379a000000000000000000000000000000000000000000000000000000000815260040161057590611aef565b60405180910390fd5b80600460003373ffffffffffffffffffffffffffffffffffffffff1673ffffffffffffffffffffffffffffffffffffffff168152602001908152602001600020600101819055506001600460003373ffffffffffffffffffffffffffffffffffffffff1673ffffffffffffffffffffffffffffffffffffffff16815260200190815260200160002060000160016101000a81548160ff0219169083151502179055506003818154811061063457610633611b0f565b5b9060005260206000209060020201600101600081548092919061065690611b6d565b919050555060036001548154811061067157610670611b0f565b5b9060005260206000209060020201600101546003828154811061069757610696611b0f565b5b90600052602060002090600202016001015411156106b757806001819055505b7f4d99b957a2bc29a30ebd96a7be8e68fe50a3c701db28a91436490b7d53870ca433826040516106e8929190611bb5565b60405180910390a150565b600460003373ffffffffffffffffffffffffffffffffffffffff1673ffffffffffffffffffffffffffffffffffffffff16815260200190815260200160002060000160009054906101000a900460ff16610782576040517f08c379a000000000000000000000000000000000000000000000000000000000815260040161077990611985565b60405180910390fd5b600160058111156107965761079561169d565b5b600260009054906101000a900460ff1660058111156107b8576107b761169d565b5b146107f8576040517f08c379a00000000000000000000000000000000000000000000000000000000081526004016107ef90611c2a565b60405180910390fd5b60405160200161080790611c70565b604051602081830303815290604052805190602001208282604051602001610830929190611ccc565b6040516020818303038152906040528051906020012003610886576040517f08c379a000000000000000000000000000000000000000000000000000000000815260040161087d90611d62565b60405180910390fd5b61088e6114e3565b82828080601f016020809104026020016040519081016040528093929190818152602001838380828437600081840152601f19601f8201169050808301925050505050505081600001819052506003819080600181540180825580915050600190039060005260206000209060020201600090919091909150600082015181600001908161091c9190611fbd565b506020820151816001015550507f92e393e9b54e2f801d3ea4beb0c5e71a21cc34a5d34b77d0fb8a3aa1650dc18f600160038054905061095c919061208f565b604051610969919061183c565b60405180910390a1505050565b61097e611399565b600460058111156109925761099161169d565b5b600260009054906101000a900460ff1660058111156109b4576109b361169d565b5b146109f4576040517f08c379a00000000000000000000000000000000000000000000000000000000081526004016109eb90612135565b60405180910390fd5b6005600260006101000a81548160ff02191690836005811115610a1a57610a1961169d565b5b02179055507f0a97a4ee45751e2abf3e4fc8946939630b11b371ea8ae39ccdc3056e98f5cc3f60046005604051610a52929190612155565b60405180910390a1565b610a64611399565b610a6e6000611417565b565b60008060009054906101000a900473ffffffffffffffffffffffffffffffffffffffff16905090565b600260009054906101000a900460ff1681565b610ab46114e3565b600460003373ffffffffffffffffffffffffffffffffffffffff1673ffffffffffffffffffffffffffffffffffffffff16815260200190815260200160002060000160009054906101000a900460ff16610b43576040517f08c379a0000000000000000000000000000000000000000000000000000000008152600401610b3a90611985565b60405180910390fd5b60038281548110610b5757610b56611b0f565b5b9060005260206000209060020201604051806040016040529081600082018054610b8090611de0565b80601f0160208091040260200160405190810160405280929190818152602001828054610bac90611de0565b8015610bf95780601f10610bce57610100808354040283529160200191610bf9565b820191906000526020600020905b815481529060010190602001808311610bdc57829003601f168201915b505050505081526020016001820154815250509050919050565b610c1b611399565b60036005811115610c2f57610c2e61169d565b5b600260009054906101000a900460ff166005811115610c5157610c5061169d565b5b14610c91576040517f08c379a0000000000000000000000000000000000000000000000000000000008152600401610c8890611a17565b60405180910390fd5b6004600260006101000a81548160ff02191690836005811115610cb757610cb661169d565b5b02179055507f0a97a4ee45751e2abf3e4fc8946939630b11b371ea8ae39ccdc3056e98f5cc3f60036004604051610cef929190612155565b60405180910390a1565b60015481565b610d07611399565b60006005811115610d1b57610d1a61169d565b5b600260009054906101000a900460ff166005811115610d3d57610d3c61169d565b5b14610d7d576040517f08c379a0000000000000000000000000000000000000000000000000000000008152600401610d74906121f0565b60405180910390fd5b6001600260006101000a81548160ff02191690836005811115610da357610da261169d565b5b0217905550610db06114e3565b6040518060400160405280600781526020017f47454e4553495300000000000000000000000000000000000000000000000000815250816000018190525060038190806001815401808255809150506001900390600052602060002090600202016000909190919091506000820151816000019081610e2f9190611fbd565b506020820151816001015550507f0a97a4ee45751e2abf3e4fc8946939630b11b371ea8ae39ccdc3056e98f5cc3f60006001604051610e6f929190612155565b60405180910390a150565b610e82611399565b60016005811115610e9657610e9561169d565b5b600260009054906101000a900460ff166005811115610eb857610eb761169d565b5b14610ef8576040517f08c379a0000000000000000000000000000000000000000000000000000000008152600401610eef90612282565b60405180910390fd5b60028060006101000a81548160ff02191690836005811115610f1d57610f1c61169d565b5b02179055507f0a97a4ee45751e2abf3e4fc8946939630b11b371ea8ae39ccdc3056e98f5cc3f60016002604051610f55929190612155565b60405180910390a1565b610f676114fd565b600460003373ffffffffffffffffffffffffffffffffffffffff1673ffffffffffffffffffffffffffffffffffffffff16815260200190815260200160002060000160009054906101000a900460ff16610ff6576040517f08c379a0000000000000000000000000000000000000000000000000000000008152600401610fed90611985565b60405180910390fd5b600460008373ffffffffffffffffffffffffffffffffffffffff1673ffffffffffffffffffffffffffffffffffffffff1681526020019081526020016000206040518060600160405290816000820160009054906101000a900460ff161515151581526020016000820160019054906101000a900460ff161515151581526020016001820154815250509050919050565b61108f611399565b600260058111156110a3576110a261169d565b5b600260009054906101000a900460ff1660058111156110c5576110c461169d565b5b14611105576040517f08c379a00000000000000000000000000000000000000000000000000000000081526004016110fc90612314565b60405180910390fd5b6003600260006101000a81548160ff0219169083600581111561112b5761112a61169d565b5b02179055507f0a97a4ee45751e2abf3e4fc8946939630b11b371ea8ae39ccdc3056e98f5cc3f60026003604051611163929190612155565b60405180910390a1565b611175611399565b600073ffffffffffffffffffffffffffffffffffffffff168173ffffffffffffffffffffffffffffffffffffffff16036111e4576040517f08c379a00000000000000000000000000000000000000000000000000000000081526004016111db906123a6565b60405180910390fd5b6111ed81611417565b50565b6111f8611399565b6000600581111561120c5761120b61169d565b5b600260009054906101000a900460ff16600581111561122e5761122d61169d565b5b1461126e576040517f08c379a000000000000000000000000000000000000000000000000000000000815260040161126590612438565b60405180910390fd5b60011515600460008373ffffffffffffffffffffffffffffffffffffffff1673ffffffffffffffffffffffffffffffffffffffff16815260200190815260200160002060000160009054906101000a900460ff16151503611304576040517f08c379a00000000000000000000000000000000000000000000000000000000081526004016112fb906124a4565b60405180910390fd5b6001600460008373ffffffffffffffffffffffffffffffffffffffff1673ffffffffffffffffffffffffffffffffffffffff16815260200190815260200160002060000160006101000a81548160ff0219169083151502179055507fb6be2187d059cc2a55fe29e0e503b566e1e0f8c8780096e185429350acffd3dd8160405161138e9190611563565b60405180910390a150565b6113a16114db565b73ffffffffffffffffffffffffffffffffffffffff166113bf610a70565b73ffffffffffffffffffffffffffffffffffffffff1614611415576040517f08c379a000000000000000000000000000000000000000000000000000000000815260040161140c90612510565b60405180910390fd5b565b60008060009054906101000a900473ffffffffffffffffffffffffffffffffffffffff169050816000806101000a81548173ffffffffffffffffffffffffffffffffffffffff021916908373ffffffffffffffffffffffffffffffffffffffff1602179055508173ffffffffffffffffffffffffffffffffffffffff168173ffffffffffffffffffffffffffffffffffffffff167f8be0079c531659141344cd1fd0a4f28419497f9722a3daafe3b4186f6b6457e060405160405180910390a35050565b600033905090565b604051806040016040528060608152602001600081525090565b6040518060600160405280600015158152602001600015158152602001600081525090565b600073ffffffffffffffffffffffffffffffffffffffff82169050919050565b600061154d82611522565b9050919050565b61155d81611542565b82525050565b60006020820190506115786000830184611554565b92915050565b600080fd5b600080fd5b6000819050919050565b61159b81611588565b81146115a657600080fd5b50565b6000813590506115b881611592565b92915050565b6000602082840312156115d4576115d361157e565b5b60006115e2848285016115a9565b91505092915050565b600080fd5b600080fd5b600080fd5b60008083601f8401126116105761160f6115eb565b5b8235905067ffffffffffffffff81111561162d5761162c6115f0565b5b602083019150836001820283011115611649576116486115f5565b5b9250929050565b600080602083850312156116675761166661157e565b5b600083013567ffffffffffffffff81111561168557611684611583565b5b611691858286016115fa565b92509250509250929050565b7f4e487b7100000000000000000000000000000000000000000000000000000000600052602160045260246000fd5b600681106116dd576116dc61169d565b5b50565b60008190506116ee826116cc565b919050565b60006116fe826116e0565b9050919050565b61170e816116f3565b82525050565b60006020820190506117296000830184611705565b92915050565b600081519050919050565b600082825260208201905092915050565b60005b8381101561176957808201518184015260208101905061174e565b60008484015250505050565b6000601f19601f8301169050919050565b60006117918261172f565b61179b818561173a565b93506117ab81856020860161174b565b6117b481611775565b840191505092915050565b6117c881611588565b82525050565b600060408301600083015184820360008601526117eb8282611786565b915050602083015161180060208601826117bf565b508091505092915050565b6000602082019050818103600083015261182581846117ce565b905092915050565b61183681611588565b82525050565b6000602082019050611851600083018461182d565b92915050565b61186081611542565b811461186b57600080fd5b50565b60008135905061187d81611857565b92915050565b6000602082840312156118995761189861157e565b5b60006118a78482850161186e565b91505092915050565b60008115159050919050565b6118c5816118b0565b82525050565b6060820160008201516118e160008501826118bc565b5060208201516118f460208501826118bc565b50604082015161190760408501826117bf565b50505050565b600060608201905061192260008301846118cb565b92915050565b600082825260208201905092915050565b7f596f75277265206e6f74206120766f7465720000000000000000000000000000600082015250565b600061196f601283611928565b915061197a82611939565b602082019050919050565b6000602082019050818103600083015261199e81611962565b9050919050565b7f566f74696e672073657373696f6e20686176656e74207374617274656420796560008201527f7400000000000000000000000000000000000000000000000000000000000000602082015250565b6000611a01602183611928565b9150611a0c826119a5565b604082019050919050565b60006020820190508181036000830152611a30816119f4565b9050919050565b7f596f75206861766520616c726561647920766f74656400000000000000000000600082015250565b6000611a6d601683611928565b9150611a7882611a37565b602082019050919050565b60006020820190508181036000830152611a9c81611a60565b9050919050565b7f50726f706f73616c206e6f7420666f756e640000000000000000000000000000600082015250565b6000611ad9601283611928565b9150611ae482611aa3565b602082019050919050565b60006020820190508181036000830152611b0881611acc565b9050919050565b7f4e487b7100000000000000000000000000000000000000000000000000000000600052603260045260246000fd5b7f4e487b7100000000000000000000000000000000000000000000000000000000600052601160045260246000fd5b6000611b7882611588565b91507fffffffffffffffffffffffffffffffffffffffffffffffffffffffffffffffff8203611baa57611ba9611b3e565b5b600182019050919050565b6000604082019050611bca6000830185611554565b611bd7602083018461182d565b9392505050565b7f50726f706f73616c7320617265206e6f7420616c6c6f77656420796574000000600082015250565b6000611c14601d83611928565b9150611c1f82611bde565b602082019050919050565b60006020820190508181036000830152611c4381611c07565b9050919050565b50565b6000611c5a600083611928565b9150611c6582611c4a565b600082019050919050565b60006020820190508181036000830152611c8981611c4d565b9050919050565b82818337600083830152505050565b6000611cab8385611928565b9350611cb8838584611c90565b611cc183611775565b840190509392505050565b60006020820190508181036000830152611ce7818486611c9f565b90509392505050565b7f566f7573206e6520706f7576657a20706173206e65207269656e2070726f706f60008201527f7365720000000000000000000000000000000000000000000000000000000000602082015250565b6000611d4c602383611928565b9150611d5782611cf0565b604082019050919050565b60006020820190508181036000830152611d7b81611d3f565b9050919050565b7f4e487b7100000000000000000000000000000000000000000000000000000000600052604160045260246000fd5b7f4e487b7100000000000000000000000000000000000000000000000000000000600052602260045260246000fd5b60006002820490506001821680611df857607f821691505b602082108103611e0b57611e0a611db1565b5b50919050565b60008190508160005260206000209050919050565b60006020601f8301049050919050565b600082821b905092915050565b600060088302611e737fffffffffffffffffffffffffffffffffffffffffffffffffffffffffffffffff82611e36565b611e7d8683611e36565b95508019841693508086168417925050509392505050565b6000819050919050565b6000611eba611eb5611eb084611588565b611e95565b611588565b9050919050565b6000819050919050565b611ed483611e9f565b611ee8611ee082611ec1565b848454611e43565b825550505050565b600090565b611efd611ef0565b611f08818484611ecb565b505050565b5b81811015611f2c57611f21600082611ef5565b600181019050611f0e565b5050565b601f821115611f7157611f4281611e11565b611f4b84611e26565b81016020851015611f5a578190505b611f6e611f6685611e26565b830182611f0d565b50505b505050565b600082821c905092915050565b6000611f9460001984600802611f76565b1980831691505092915050565b6000611fad8383611f83565b9150826002028217905092915050565b611fc68261172f565b67ffffffffffffffff811115611fdf57611fde611d82565b5b611fe98254611de0565b611ff4828285611f30565b600060209050601f8311600181146120275760008415612015578287015190505b61201f8582611fa1565b865550612087565b601f19841661203586611e11565b60005b8281101561205d57848901518255600182019150602085019450602081019050612038565b8683101561207a5784890151612076601f891682611f83565b8355505b6001600288020188555050505b505050505050565b600061209a82611588565b91506120a583611588565b92508282039050818111156120bd576120bc611b3e565b5b92915050565b7f43757272656e7420737461747573206973206e6f7420766f74696e672073657360008201527f73696f6e20656e64656400000000000000000000000000000000000000000000602082015250565b600061211f602a83611928565b915061212a826120c3565b604082019050919050565b6000602082019050818103600083015261214e81612112565b9050919050565b600060408201905061216a6000830185611705565b6121776020830184611705565b9392505050565b7f5265676973746572696e672070726f706f73616c732063616e7420626520737460008201527f6172746564206e6f770000000000000000000000000000000000000000000000602082015250565b60006121da602983611928565b91506121e58261217e565b604082019050919050565b60006020820190508181036000830152612209816121cd565b9050919050565b7f5265676973746572696e672070726f706f73616c7320686176656e742073746160008201527f7274656420796574000000000000000000000000000000000000000000000000602082015250565b600061226c602883611928565b915061227782612210565b604082019050919050565b6000602082019050818103600083015261229b8161225f565b9050919050565b7f5265676973746572696e672070726f706f73616c73207068617365206973206e60008201527f6f742066696e6973686564000000000000000000000000000000000000000000602082015250565b60006122fe602b83611928565b9150612309826122a2565b604082019050919050565b6000602082019050818103600083015261232d816122f1565b9050919050565b7f4f776e61626c653a206e6577206f776e657220697320746865207a65726f206160008201527f6464726573730000000000000000000000000000000000000000000000000000602082015250565b6000612390602683611928565b915061239b82612334565b604082019050919050565b600060208201905081810360008301526123bf81612383565b9050919050565b7f566f7465727320726567697374726174696f6e206973206e6f74206f70656e2060008201527f7965740000000000000000000000000000000000000000000000000000000000602082015250565b6000612422602383611928565b915061242d826123c6565b604082019050919050565b6000602082019050818103600083015261245181612415565b9050919050565b7f416c726561647920726567697374657265640000000000000000000000000000600082015250565b600061248e601283611928565b915061249982612458565b602082019050919050565b600060208201905081810360008301526124bd81612481565b9050919050565b7f4f776e61626c653a2063616c6c6572206973206e6f7420746865206f776e6572600082015250565b60006124fa602083611928565b9150612505826124c4565b602082019050919050565b60006020820190508181036000830152612529816124ed565b905091905056fea264697066735822122083022717a9feb22157cb06a274e5861d28e0023834e2c2878a6035ac4b8563d464736f6c63430008110033",
  "immutableReferences": {},
  "source": "// SPDX-License-Identifier: MIT\n\npragma solidity 0.8.17;\n\nimport \"../node_modules/@openzeppelin/contracts/access/Ownable.sol\";\n\ncontract Voting is Ownable {\n    uint public winningProposalID;\n    \n    struct Voter {\n        bool isRegistered;\n        bool hasVoted;\n        uint votedProposalId;\n    }\n\n    struct Proposal {\n        string description;\n        uint voteCount;\n    }\n\n    enum  WorkflowStatus {\n        RegisteringVoters,\n        ProposalsRegistrationStarted,\n        ProposalsRegistrationEnded,\n        VotingSessionStarted,\n        VotingSessionEnded,\n        VotesTallied\n    }\n\n    WorkflowStatus public workflowStatus;\n    Proposal[] proposalsArray;\n    mapping (address => Voter) voters;\n\n    event VoterRegistered(address voterAddress); \n    event WorkflowStatusChange(WorkflowStatus previousStatus, WorkflowStatus newStatus);\n    event ProposalRegistered(uint proposalId);\n    event Voted(address voter, uint proposalId);\n    event LogDepositReceived(address voterAddress);\n    \n    /**\n    * @dev only voters authorized\n    */\n    modifier onlyVoters() {\n        require(voters[msg.sender].isRegistered, \"You're not a voter\");\n        _;\n    }\n    \n    /**\n    * @dev retrieve voter by address\n    * @param _addr address of voter\n    */\n    function getVoter(address _addr) external onlyVoters view returns (Voter memory) {\n        return voters[_addr];\n    }\n    \n    /**\n    * @dev retrieve proposal by id\n    * @param _id if of proposal\n    */\n    function getOneProposal(uint _id) external onlyVoters view returns (Proposal memory) {\n        return proposalsArray[_id];\n    }\n \n   /**\n    * @dev add Voter\n    * @param _addr address of voter\n    */\n    function addVoter(address _addr) external onlyOwner {\n        require(workflowStatus == WorkflowStatus.RegisteringVoters, 'Voters registration is not open yet');\n        require(voters[_addr].isRegistered != true, 'Already registered');\n    \n        voters[_addr].isRegistered = true;\n        emit VoterRegistered(_addr);\n    }\n \n    /**\n    * @dev Register Proposal\n    * @param _desc content of proposal\n    */\n    function addProposal(string calldata _desc) external onlyVoters {\n        require(workflowStatus == WorkflowStatus.ProposalsRegistrationStarted, 'Proposals are not allowed yet');\n        require(keccak256(abi.encode(_desc)) != keccak256(abi.encode(\"\")), 'Vous ne pouvez pas ne rien proposer'); // facultatif\n        Proposal memory proposal;\n        proposal.description = _desc;\n        proposalsArray.push(proposal);\n        emit ProposalRegistered(proposalsArray.length-1);\n    }\n\n   /**\n    * @dev Set Vote\n    * @param _id id of proposal\n    */\n    function setVote( uint _id) external onlyVoters {\n        require(workflowStatus == WorkflowStatus.VotingSessionStarted, 'Voting session havent started yet');\n        require(voters[msg.sender].hasVoted != true, 'You have already voted');\n        require(_id < proposalsArray.length, 'Proposal not found'); // pas oblig, et pas besoin du >0 car uint\n\n        voters[msg.sender].votedProposalId = _id;\n        voters[msg.sender].hasVoted = true;\n        proposalsArray[_id].voteCount++;\n\n        // I delete for loop in TallyVote() function to avoid Force Feeding\n        if (proposalsArray[_id].voteCount > proposalsArray[winningProposalID].voteCount) {\n            winningProposalID = _id;\n        }\n\n        emit Voted(msg.sender, _id);\n    }\n\n    /**\n    * @dev start Proposal sRegistering \n    */\n    function startProposalsRegistering() external onlyOwner {\n        require(workflowStatus == WorkflowStatus.RegisteringVoters, 'Registering proposals cant be started now');\n        workflowStatus = WorkflowStatus.ProposalsRegistrationStarted;\n        Proposal memory proposal;\n        proposal.description = \"GENESIS\";\n        proposalsArray.push(proposal);\n        \n        emit WorkflowStatusChange(WorkflowStatus.RegisteringVoters, WorkflowStatus.ProposalsRegistrationStarted);\n    }\n\n    /**\n    * @dev end Proposals Registering \n    */\n    function endProposalsRegistering() external onlyOwner {\n        require(workflowStatus == WorkflowStatus.ProposalsRegistrationStarted, 'Registering proposals havent started yet');\n        workflowStatus = WorkflowStatus.ProposalsRegistrationEnded;\n        emit WorkflowStatusChange(WorkflowStatus.ProposalsRegistrationStarted, WorkflowStatus.ProposalsRegistrationEnded);\n    }\n\n    /**\n    * @dev start voting Registering \n    */\n    function startVotingSession() external onlyOwner {\n        require(workflowStatus == WorkflowStatus.ProposalsRegistrationEnded, 'Registering proposals phase is not finished');\n        workflowStatus = WorkflowStatus.VotingSessionStarted;\n        emit WorkflowStatusChange(WorkflowStatus.ProposalsRegistrationEnded, WorkflowStatus.VotingSessionStarted);\n    }\n\n    /**\n    * @dev end voting Session \n    */\n    function endVotingSession() external onlyOwner {\n        require(workflowStatus == WorkflowStatus.VotingSessionStarted, 'Voting session havent started yet');\n        workflowStatus = WorkflowStatus.VotingSessionEnded;\n        emit WorkflowStatusChange(WorkflowStatus.VotingSessionStarted, WorkflowStatus.VotingSessionEnded);\n    }\n\n    /**\n    * @dev tally votes\n    */\n   function tallyVotes() external onlyOwner {\n       require(workflowStatus == WorkflowStatus.VotingSessionEnded, \"Current status is not voting session ended\"); \n       workflowStatus = WorkflowStatus.VotesTallied;\n       emit WorkflowStatusChange(WorkflowStatus.VotingSessionEnded, WorkflowStatus.VotesTallied);\n    }\n\n    /** \n    * @dev Manage fallback if no function exist in the smart contract\n    */\n    fallback() external payable { require(msg.data.length == 0); emit LogDepositReceived(msg.sender); }\n \n    /** \n    * @dev Manage receiving ethers\n    */\n    receive() external payable{ emit LogDepositReceived(msg.sender); }\n}",
  "sourcePath": "/Users/jeremievillalon/Alyra/Truffle Cours/Projet3/truffle/contracts/Voting.sol",
  "compiler": {
    "name": "solc",
    "version": "0.8.17+commit.8df45f5f.Emscripten.clang"
  },
  "schemaVersion": "3.4.9",
  "updatedAt": "2022-11-21T22:12:15.770Z",
  "networkType": "ethereum",
  "devdoc": {
    "kind": "dev",
    "methods": {
      "addProposal(string)": {
        "details": "Register Proposal",
        "params": {
          "_desc": "content of proposal"
        }
      },
      "addVoter(address)": {
        "details": "add Voter",
        "params": {
          "_addr": "address of voter"
        }
      },
      "endProposalsRegistering()": {
        "details": "end Proposals Registering "
      },
      "endVotingSession()": {
        "details": "end voting Session "
      },
      "getOneProposal(uint256)": {
        "details": "retrieve proposal by id",
        "params": {
          "_id": "if of proposal"
        }
      },
      "getVoter(address)": {
        "details": "retrieve voter by address",
        "params": {
          "_addr": "address of voter"
        }
      },
      "owner()": {
        "details": "Returns the address of the current owner."
      },
      "renounceOwnership()": {
        "details": "Leaves the contract without owner. It will not be possible to call `onlyOwner` functions anymore. Can only be called by the current owner. NOTE: Renouncing ownership will leave the contract without an owner, thereby removing any functionality that is only available to the owner."
      },
      "setVote(uint256)": {
        "details": "Set Vote",
        "params": {
          "_id": "id of proposal"
        }
      },
      "startProposalsRegistering()": {
        "details": "start Proposal sRegistering "
      },
      "startVotingSession()": {
        "details": "start voting Registering "
      },
      "tallyVotes()": {
        "details": "tally votes"
      },
      "transferOwnership(address)": {
        "details": "Transfers ownership of the contract to a new account (`newOwner`). Can only be called by the current owner."
      }
    },
    "version": 1
  },
  "userdoc": {
    "kind": "user",
    "methods": {},
    "version": 1
  }
}